:020000041000EA
:1000000000B5324B212058609868022188439860DF
:10001000D860186158612E4B002199600221596106
:100020000121F02299502B49196001219960352056
:1000300000F044F80222904214D00621196600F024
:1000400034F8196E01211966002018661A6600F04E
:100050002CF8196E196E196E052000F02FF8012189
:100060000842F9D1002199601B49196000215960AB
:100070001A491B48016001219960EB211966A021F2
:10008000196600F012F800219960164914480160C1
:100090000121996001BC002800D000471248134993
:1000A000086003C880F30888084703B5996A0420EC
:1000B0000142FBD001200142F8D103BD02B5186610
:1000C0001866FFF7F2FF186E186E02BD00000240BE
:1000D000000000180000070000035F00212200005C
:1000E000F4000018222000A00001001008ED00E03C
:1000F00000000000000000000000000074B24E7A12
:1001000000200420F7010010CB010010CD010010E9
:10011000C9010010C9010010C9010010C901001077
:10012000C9010010C9010010C9010010CF01001061
:10013000C9010010C9010010D1010010D301001045
:10014000C1010010C1010010C1010010C101001067
:10015000C1010010C1010010C1010010C101001057
:10016000C1010010C1010010C1010010C101001047
:10017000C1010010C1010010C1010010C101001037
:10018000C1010010C1010010C1010010C101001027
:10019000C1010010C1010010C1010010C101001017
:1001A000C1010010C1010010C1010010C101001007
:1001B000C1010010C1010010C1010010C1010010F7
:1001C000EFF30580103800BE00BE00BE00BE00BECA
:1001D00000BE00BEF2EB8871987D0010B47D001067
:1001E0003802001090A31AE71E481F49086006C88D
:1001F00081F3088810471D480068002801D019487D
:10020000F3E70DA40ECC002902D000F012F8F9E7B4
:100210001749184A002000E001C19142FCD116495B
:100220008847164988471649884700BEFDE701C937
:1002300001C29A42FBD37047B47D0010C000002079
:10024000340F0020288C001000000420000004203F
:10025000288C001000100420001004200000000072
:10026000704700000000000008ED00E0000000D032
:10027000340F0020EC47002089250010F102001007
:1002800081250010F8B5C04606480749091A8B10A9
:10029000C90FC91810B5491003D0044B002B00D06A
:1002A000984710BD340F0020340F002000000000DC
:1002B000054B10B5002B03D00449054800E000BFF2
:1002C000FFF7E2FF10BDC04600000000CC3B00205D
:1002D000807B001070B5D02580242D06A404C82092
:1002E0006C6101F059F8C820AC6101F055F8F6E7EF
:1002F000F0B5D6464F464646C0B588B002F024FA5F
:10030000192000F0AFFBD023802200241B069204AA
:100310005A629A61200000F073F8002836D0013448
:10032000E4B2042CF6D100F0CDF8234B234F9846CD
:10033000234B3D009946234B00279A46224C05AE9D
:100340004346DB5D27706370204B802205933B00A2
:100350003033337100237371FB0253440193022342
:10036000029500933100230048469200013706F0C1
:10037000EFF902345C35042FE2D106F017FB0020C0
:1003800008B0E0BCBA46B146A846F0BD8026B60427
:10039000D02503242D0664206E6100F0FDFF013C92
:1003A0006420AE6100F0F8FF002CF4D1FA20400088
:1003B00000F0F2FFECE7C046807B001060160020E2
:1003C000D90900101C180020581600206374726CA4
:1003D000DC2300B583B0D15000230193E033D05823
:1003E000002101AA06F00CFF019B002B03D0802204
:1003F000024B52051A6003B000BDC04604ED00E098
:1004000010B5032801D9002010BDE8234343094A51
:100410009B181C00084A9834115C1800074A236096
:1004200003F04CFB0028EEDB206803681B6898474C
:100430000120E9E7380F0020847B001000002050E5
:10044000F0B5C646884600B5032803D9002080BC15
:10045000B846F0BDE825454305F0A0FE174E002242
:1004600074192300E0331860DC239C46A4446746DB
:100470000023012100203B6006F00AFE2B00B44659
:100480009C339C4423006146983318680C4A23002F
:100490000C0002F0E5FA0028D8DB0522012100203B
:1004A00006F0F6FD0028D1D03B68002BCEDB42469B
:1004B00023880120138063885380C8E7380F002009
:1004C000D1030010F0B5184983B0012004F098FA68
:1004D000164F052238600421012003F075FB144EED
:1004E000144C306001AD0F222378012113404F3AA4
:1004F00013432B704F23494238686B7004F090FC13
:1005000002222900306803F0D1FB306803F0D4FBED
:10051000002300220021386804F0D6F8064B01348D
:100520009C42E0D103B0F0BDD41700201C3800205D
:10053000D0170020887B00108C7B00100F23034015
:100540007020404218437F2370B582B001AC19403F
:10055000617001210C4D1340207049422868A3703E
:1005600004F05EFC094E21000322306803F09EFB7C
:10057000306803F0A1FB002300220021286804F06A
:10058000A3F802B070BDC0461C380020D017002070
:10059000002370B582B001ACA3700F3303408020FC
:1005A000404218437F230B4001210C4D20704942EB
:1005B0002868637004F034FC094E2100032230687F
:1005C00003F074FB306803F077FB00230022002166
:1005D000286804F079F802B070BDC0461C380020CD
:1005E000D01700200F2303405020404218437F23A0
:1005F00070B582B001AC1940617001210C4D1340FF
:10060000207049422868A37004F00AFC094E2100BA
:100610000322306803F04AFB306803F04DFB0023EF
:1006200000220021286804F04FF802B070BDC046D7
:100630001C380020D01700200F23034040204042E8
:1006400018437F230B40012170B50D4D82B001ACE2
:10065000207049422868637004F0E2FB094E2100D3
:100660000222306803F022FB306803F025FB0023F0
:1006700000220021286804F027F802B070BDC046AF
:100680001C380020D017002080239B01C9180F239D
:1006900003402020404218437F231A000A40C90922
:1006A0000B40012170B50D4D82B001AC2070494264
:1006B0002868A370627004F0B3FB094E2100032286
:1006C000306803F0F3FA306803F0F6FA00230022F2
:1006D0000021286803F0F8FF02B070BD1C3800202C
:1006E000D01700200F2303405020404218437B23A3
:1006F00070B582B001AC0121637000230B4D2070F6
:1007000049422868A37004F08BFB094E21000322A4
:10071000306803F0CBFA306803F0CEFA00230022F1
:100720000021286803F0D0FF02B070BD1C38002003
:10073000D0170020F0B557464E464546DE460A889B
:10074000E0B51300058887B0AB439A469D4B9543AF
:1007500099460B23471D1B18A8468B464D463C0067
:100760008146994E019305970CE043463B4203D0E6
:100770002178002900D0AFE0019B01340236013519
:100780009C425BD0534637883B42EED04B460C220E
:100790001B795BB253432A78D21813B2DB43DB17C1
:1007A00013401AB27F2A00DD7F23DBB202930220BE
:1007B0005B46185601F03CFE5B460390032018563A
:1007C00001F036FE039B0490191C181C01F023FE57
:1007D00004990390081C01F01EFE011C039801F00F
:1007E00003FE01F047FE8023DB05984200D3E5E0DD
:1007F0009B089842FCD3002B00D19BE00022D1182B
:100800005208814201D8401AD2189B08F7D1072A12
:1008100000D88FE0552A00D95522083A92B29001AB
:10082000801A4D21400001F01FFB0130C2B24B463F
:1008300002992170187BFFF781FE96E753464546E3
:10084000059FC8469B0600D5ACE0AD0600D59FE0ED
:1008500053469B0408D543461B79013B1A1C5BB2E7
:10086000033342DB43461A715346DB0408D5434643
:100870001B7901331A1C5BB2032B34DC43461A711B
:100880005346DB0600D575E053461B0754D4534648
:100890005B0759D453469B075ED45346DB0763D4AA
:1008A0005B460220032418561C574346C2171D7B83
:1008B00083185340DBB2082B00D87DE0434B400344
:1008C000984215DB552101F0A7FA80239B0198423D
:1008D00000DB3F4801B20CE04B46187BFFF758FEA7
:1008E0000023237048E70322C8E7FD231A1CB9E759
:1008F00038492800FFF7C8FEE217A3185340DBB2BF
:100900000022082B05D9D8015521C01A01F0ACFAF4
:10091000C2B243460121187BFFF764FE0422594608
:10092000404601F005FE07B0F0BCBB46B246A94602
:10093000A046F0BD50227AE743464F21187BFFF7CF
:100940007BFE53465B07A5D543461821187BFFF76E
:1009500073FE53469B07A0D543460A21187BFFF739
:100960006BFE5346DB079BD543460E21187BFFF7F2
:1009700063FE95E74346187BFFF7B4FE062200218D
:10098000380001F0CFFD00234246D37213717BE79C
:1009900043464246187B00234021D3720022FFF7D2
:1009A00021FE55E74B464A46187B01234021D3726E
:1009B0007F22FFF717FE48E700219AE78023DB0537
:1009C0001CE7C0468C7B0010947B0010AC5FF5FFE9
:1009D000FF1F000000E0FFFFF0B5C64600B586B07F
:1009E00002AB984600234278029303930493434654
:1009F0000400D02580271A7304F056FF00260090CB
:100A00002D06BF040A21684606F040F9207801A9A6
:100A10000196FFF715FD2378002B00D1EF61002828
:100A200003D16078FFF75EFEECE7404601A9FFF7CF
:100A300081FEE7E710B54024074A83009A18126840
:100A4000C0005440C0222240044C1B191A60044BC1
:100A5000C018416010BDC04604C0014004D0014030
:100A6000004001400123D02283401206936293612B
:100A7000084A83009A1811684022514080320A4087
:100A80000549C0005B181A60044BC0180523436079
:100A90007047C04604C0014004D0014000400140FE
:100AA0000FB400B5084883B001F09AFE049B002BF8
:100AB00007D005A91800019101F048FD034801F095
:100AC0008FFE012001F05AFDA07B0010B07B0010CA
:100AD00010B50148FFF7E4FFB47B0010EFF310807E
:100AE00072B6034A1368002BFCD0BFF35F8F7047C8
:100AF0002C0100D0BFF35F8F0022024B1A6080F3FD
:100B0000108870472C0100D070B58C461600EFF3AA
:100B1000108472B60F490B68002BFCD0BFF35F8FB7
:100B20006346DB08C5180722C05C63461A400123F0
:100B300093401A000240034207D118432870BFF3C4
:100B40005F8F0A6084F3108870BD61463000FFF744
:100B5000A7FFC0462C0100D0F8B5CE4647468C46CC
:100B600080B51C00EFF3108872B61C490B68002B8F
:100B7000FCD0BFF35F8FA24221D80723994602E041
:100B80000132944218D34946012611408E40D308C1
:100B9000C718C35C1E42F3D1100033433B70BFF350
:100BA0005F8F00220D4B1A6088F3108800280EDB3F
:100BB000C0BCB946B046F8BD01204042EFE7BFF3E4
:100BC0005F8F00230B6088F310880120404263464A
:100BD000002BEDD00898FFF763FFC0462C0100D032
:100BE000044A1078431CDBB2172B00D91023137072
:100BF0007047C046D80E002010B50100024A0348D5
:100C0000FFF782FF10BDC046C47B001028390020CA
:100C10000021044B044ABFF35F8F02C39342FAD111
:100C20007047C046000100D0800100D0084B094A3F
:100C30001360094A1360094A1360094A1360094A9C
:100C40001360094A1360094A1360094A1360704728
:100C50008080808000E400E004E400E008E400E03C
:100C60000CE400E010E400E014E400E018E400E02C
:100C70001CE400E01F2318401E3B8340002905D0E0
:100C8000C021044A49005350136070478022014933
:100C90008B50FAE700E100E001228240034B1B6821
:100CA00013405A1E9341D8B27047C04600E100E09D
:100CB00070B50D00EFF3108672B60F4A1368002B63
:100CC000FCD0BFF35F8F0D4B10309B6884001B5925
:100CD0000B4A934203D09D4201D000F057FF074BCF
:100CE0009B681D51BFF35F8FBFF35F8F0022024BE4
:100CF0001A6086F3108870BD240100D000ED00E07A
:100D0000C1010010084A83089B009B181A6810B59F
:100D1000140003221040C000FC32824094432200A1
:100D200081400A431A6010BD00E400E0024BC9187C
:100D3000890001607047C04640000034F8B5124C8D
:100D4000124DAC4212D20126002776422368002BB6
:100D50000DD0FFF745FF01002000FFF7E7FF6660B9
:100D60002772BFF35F8F0C34AC42EFD3F8BDFFF7AF
:100D700037FF01002000FFF7D9FF6660BFF35F8FE8
:100D80000834AC42E2D3F1E7240F0020340F0020F6
:100D9000034BC91889000160BFF35F8F7047C046DD
:100DA00040000034F0B5DE4657464E464546E0B5B5
:100DB00085B0EFF3058303221A40B34B91005F58CF
:100DC000012393409B4602925A468846AF4B1A60D5
:100DD000AF4B03935B46AF4843630823FE5E002E90
:100DE00037DABB881BB2002B00DBA4E0BB79002BF9
:100DF00000D0E5E00823F95E002920DB4B007A698A
:100E00005B18DB00D3189D68DC686B1C00D104E123
:100E1000A04801004144826A0B69AE1A9B1A9E42A7
:100E200015D30123026A029883401A420FD09948D1
:100E300000F0B6FB8C4202DCCCD18542CAD940BF5F
:100E400005B0F0BCBB46B246A946A046F0BD0D6158
:100E5000EDE77A69730091469B19DB0099444B4694
:100E60009C68DD6800F09CFB8D42BADC00D1F6E0A6
:100E7000002D00DADBE04A464B4652691B69924678
:100E8000039A934200D1CCE04A460821785E52880A
:100E90000004514610439847009001910099019A2F
:100EA0000B00134300D1C2E013000A00002B00DB4B
:100EB000D9E020002900801A99414B469860D960FA
:100EC00000229B5E002B00DA8BE75D007C69EA184C
:100ED000D200A21800949468D268A2468A4200DD2B
:100EE0007FE702D1844200D97BE70824A4463B81F6
:100EF000BC44009C00972F006546B4463E0006E0C7
:100F00005E00F218D200A2189768D268BA468A42E8
:100F100007DC00D1B4E0F318DB00E518E35E002B3A
:100F2000EEDA66464A46009F13802E80BB881BB2CD
:100F3000002B00DA5AE73A69EFF3108172B61368B2
:100F4000002BFCD0BFF35F8F0123BE885B42BB80C8
:100F500036B23B69BFF35F8F00221A6081F31088BD
:100F6000002E00DA42E73B0008333A0099467D69DB
:100F700073009B190824115FDB004846EB18002919
:100F800013DB9C680093A446DC6806E0A34240D0D3
:100F90000023F95E3800002906DB4F007F18FF00B0
:100FA000EF19FB68A342F1DD009B068000201E5E66
:100FB0001980002EDCDA1700BB79002B00D119E76D
:100FC0000023BB710823F95E4B1C00D137E73D00BD
:100FD0000835AC467C6903E084464B1C00D109E728
:100FE0004B005B18DB00E0180A00E15E43881BB28F
:100FF000002BF1DA01256D42EE178560C6600825E9
:101000007B5F9342E9D0634619803B8903803A8134
:10101000E3E7BB686345BBD9C6E7631C00D0F7E6CE
:1010200005E7534650461B699847002823D14B4695
:101030001B883A693B81EFF3108372B6116800296F
:10104000FCD0BFF35F8F49467A880A803A697E8078
:10105000BFF35F8F0021116083F31088C1E68442E3
:1010600000D805E7BDE60B4800F09AFA009B019C0A
:10107000C018614121E753460CCB009201930DE764
:10108000824500D847E74CE71C3C00203C700540F7
:10109000A50D001000400540074810B50268EFF3A9
:1010A000108172B61368002BFCD0BFF35F8F03F082
:1010B000A9F80020002110BDF43C002070B52D4C93
:1010C0002569002D04D00A212B48FFF72FFE70BDA3
:1010D0002A4E0321294800F059FAE660FFF780FD07
:1010E000274B0322C018D02322701B061B68012146
:1010F0006370244B8000A3600F2320610220638073
:1011000063694942A18019800231198647311D83E4
:10111000585218315A5275325C399952183201318D
:1011200099521832013199521832013199520835C9
:1011300018329D52023118329952183201319952A7
:101140001832013199521832013199521832013155
:1011500099521832013199520B4B0C49DC60013025
:101160003562FFF7A5FD01210320FFF783FD084B42
:101170001D60A8E7DC0E0020F43C00200040054084
:1011800040000034FFFF10001C3C0020A50D0010A3
:101190003860054000487047DC0E0020F8B51F009D
:1011A00008AB1B7804001600002B07D100F000FAF2
:1011B00032003B00121A8B41002B51DB2269EFF306
:1011C000108C72B61368002BFCD0BFF35F8F022324
:1011D000E15E256900293ADB4B0060695B18DB00A2
:1011E000C218C35A6380BFF35F8F00232B608CF358
:1011F0001088069B9660D7601361079B53615388E4
:1012000001335B045B0C181C002B1ED083B2508092
:10121000080418432569EFF3108672B62B68002B7B
:10122000FCD0BFF35F8FA3881380A1802369BFF335
:101230005F8F00221A6086F31088237801329A406B
:101240000849E3685B181A60F8BD0120DEE7BFF3C8
:101250005F8F00232B608CF3108801204042F3E75E
:101260000020F1E73C20000070B582B000920193AD
:1012700001000269EFF3108472B61368002BFCD0F2
:10128000BFF35F8F0223C85E0D6900283FDB4A6908
:10129000430016001B18DB00D218F35A4B80BFF333
:1012A0005F8F00232B6084F31088069B1361079BDC
:1012B0005361009B019C9360D460538801335B04AD
:1012C0005B0C1D1C002B20D0ACB2030455802343C3
:1012D0000D69EFF3108C72B62C68002CFCD0BFF3B4
:1012E0005F8F8C88148088800A69BFF35F8F00202D
:1012F00010608CF310880A7801309040CA68084961
:1013000052181060180002B070BD0125DCE7BFF371
:101310005F8F00232B6084F31088013BF2E7C04607
:101320003C20000010B543890A1493421ADD530093
:101330009B184269DB00D3180469EFF3108C72B676
:101340002268002AFCD0BFF35F8F5A88090494B248
:10135000090C8A4208D00369BFF35F8F00221A602C
:101360008CF31088002010BD094A22435A800123C3
:1013700002698371BFF35F8F002111608CF31088C5
:10138000027804499340C268012052181360EAE7CA
:101390000080FFFF3C200000F0B5CE46474680B5F8
:1013A00083B0040000F004F9FA2206000F002000C8
:1013B00000230021920000F0F7FF8019794104001A
:1013C0000D1E02DA01242C4D644296267642F71750
:1013D00036196F41AF4215D812D000F0E9F832004B
:1013E0003B00121A8B41002B16DC002B40D0200052
:1013F000290000F01DF903B0C0BCB946B046F0BDED
:10140000A642EAD90026002700F0D2F832003B00BD
:10141000121A8B41002BE8DD00F0CAF832003B00C5
:10142000121A8B41002B0ADB00230193134B32006D
:10143000009313483B00FFF717FF0130D7D0B846A1
:10144000B146104F104E736A984504D8B26A4A45A7
:10145000CDD29845CBD13A68EFF3108172B61368BC
:10146000002BFCD0BFF35F8F380002F095FEEAE757
:10147000002ABCD0D0E7C046FFFFFF7F99100010C4
:10148000DC0E0020F43C002000400540F0B5CE46C4
:10149000474680B504000D0085B0EFF30586894608
:1014A000002E10D0364900204B6AAB4206D38A6A20
:1014B0005B1B591E8B41A2424041184305B0C0BC82
:1014C000B946B046F0BD2F4FFB683A7898461800F1
:1014D000039200F065F8039A131D42469B009B5847
:1014E00022001B1A9C462B00121A8B419E4210DCD4
:1014F0000DD020BF224A0020536A4B45DED3926AAA
:101500005B1B591E8B41A24240411843D6E79445CC
:10151000EFD900F04DF822002B00121A8B41002B5E
:101520001BDB00230193184B2200009338002B0093
:10153000FFF79AFE002810DD114B5A6A4A451CD36A
:101540009B6AA34217D301003800FFF7EBFE0C4A59
:101550000020536A4B45B1D3D1E7094A0020536AB2
:101560004B45ABD30020926A5B1BA24240415A1EFE
:1015700093411843A2E74A45E5D120BFE3E7C046BF
:1015800000400540DC0E00209910001010B5024A02
:101590000248FFF7B9FA10BDE47B00102C39002097
:1015A0000300416A0A00986A596A8A42FAD1704770
:1015B000034B596A0A00986A596A9142FAD17047F6
:1015C0000040054070B505000E00184A536A190026
:1015D000946A536A8B42FAD1200019002C0035001E
:1015E00024184D41AB4216D813D0104B2A005B6A29
:1015F0009D4203D90D494B6A9342FCD3934207D1D4
:101600000A4A02E0516A994202D1916AA142F9D391
:1016100070BDA042E9D9054B5B6A1C005A1CEFD093
:10162000012201246442E5175242E3E700400540ED
:10163000064A536A9942FCD807D1044B02E05A6A21
:10164000914202D19A6A9042F9D870470040054011
:10165000F8B5040006200D0000F0EAF9002843D098
:10166000364B3749E3185A1E934180225B429B0D4B
:1016700012049B059B18334A1360334A1360180009
:101680000A689043FBD12D4B304AE31859424B4135
:1016900080215B0049000620995200F0C9F9290019
:1016A000C00000F0E1FB0130C3091ED14027012238
:1016B0006262A362266BF30722D4E36A244B0620FE
:1016C000E51800232B60266300F0B2F93900800092
:1016D00000F0CAFB7023E26A5A400E3313402B60BD
:1016E0001C4B23630323A364F8BD1B4A93421DD9FB
:1016F00000231A4A1A4F6262A362266BF307DCD5F5
:10170000184B144AE3181A60656AA36A0620AD01F3
:10171000ED1800F08DF9144900F0A6FB0100A802B5
:1017200000F0A2FB0021FFF74DFFC6E740069A013B
:10173000800E17181A000300BAE7C0460080FCBFED
:1017400008C0004000E0004000F00040F83C0020ED
:101750002C10000001030000FEFF0000FFFF00004E
:10176000C0FF3F00303000004E0E00000539013A46
:10177000F8B5D2004C0105001443002B06D0013B04
:101780005A4253419B00234302241C432E6BF30710
:1017900008D46E23EA6A624013400E4AAA18136006
:1017A0002E63F8BD0C4B0D4AEB181A606B6AAA6ADF
:1017B0009B0106209F1800F03BF9094900F054FBFB
:1017C000BF020100380000F04FFB0021FFF7FAFED6
:1017D000DFE7C0462C10000030300000010300009D
:1017E0004E0E0000F8B5066B04000D01F30708D497
:1017F000E36A5D4010231D400D4BE3181D60266316
:10180000F8BD0C4B0C4AC3181A60436A826A9B01EC
:1018100006209F1800F00CF9084900F025FBBF02D4
:101820000100380000F020FB0021FFF7CBFEDFE7CE
:101830002C10000030300000010300004E0E0000AC
:101840004B425941054A4B428018F62142425041D1
:101850001940034B0A314000C15270470080FCBF61
:10186000F83C0020F8B5DE464E4645465746E0B502
:1018700005008B4618000A99914600F0F5FA0A9B7C
:101880006C001E026419304BA400E41863688046A3
:101890009E4200D966602F1FFBB29A46012B2FD9BA
:1018A000C0238022294FAD009B0179591201E31812
:1018B0001A6000291BD14B4622685B015340E0228D
:1018C000134080225201A21813605346012B2FD9D6
:1018D000802380229B01E31812011A604346666050
:1018E0007B51F0BCBB46B246A946A046F8BD78691C
:1018F00000F0BAFA013043001B18033BFDD2DAE7CF
:101900005B46012BCCD1C02303229B01E3181A6054
:10191000023AA3681A42FCD04A46236852015A4050
:10192000E023134080225201A218084F1360AD003B
:1019300058460323216841400B4013600122824036
:10194000A3681A42FCD0C3E700800040343900206D
:10195000F0B5D6464F464646440098462418324BCA
:10196000A400E41863688A469146C0B5FF2B02D8EC
:1019700080235B006360061FF6B2012E2FD9C023BF
:1019800080222A4F85009B0179591201E3181A60C1
:1019900000291BD14B4622685B015340E0221340D3
:1019A00080225201A2181360012E30D98023802298
:1019B0009B01E31812011A6080235B0063604346B9
:1019C0007B51E0BCBA46B146A846F0BD786900F04C
:1019D0004BFA013043001B18033BFDD2DAE75346B4
:1019E000012BCCD1C02303229B01E3181A60023AD9
:1019F000A3681A42FCD04A46236852015A40E023A9
:101A0000134080225201A218084F136085005046EF
:101A10000323216841400B40136001228240A368E8
:101A20001A42FCD0C2E7C046008000403439002092
:101A3000014B8000C058704734390020F0B5C646CD
:101A4000040000B52348160098460D0000F00CFA7B
:101A50000100300000F008FA4346069A1B04120306
:101A600013439C4623680600002B22DB1A4B1B48BD
:101A7000E218531E9A4180235242120B9B0112031B
:101A8000D218174B1A60174B1A60130001688B436A
:101A9000FBD12122144B2560E318A6601A6022684E
:101AA000002AFCDA6246E26008221A6080BCB8466E
:101AB000F0BD3F2322681340AB42D7D1A3681B057A
:101AC0001B0D8342D2D1EE22E368D202134063455C
:101AD000CCD1EBE7001BB7000040FDBF08C00040C1
:101AE00000E0004000F00040043000008023024A83
:101AF0009B000B43D362704700800540002310B564
:101B00000100988A1B8B984710BDC046162310B55C
:101B1000010018885B88984710BDC046F8B5474655
:101B2000CE4680B50F1E18D0142399460433040006
:101B30000025012698464B461888434621681B8895
:101B4000984701C4431E984101350640AF42F2D187
:101B50003000C0BCB946B046F8BD0126F8E7C04623
:101B6000AA23064A1B0113608D235B00D36004493E
:101B7000044B19605368002BFCDA704700400240A8
:101B800000B0FA00006002407047C04610B501483E
:101B9000FEF786FF087C001070B5074D074EB54272
:101BA00009D20024013E761BB608013608CD013467
:101BB0009847B442FAD170BD387B0010747B001096
:101BC00070B5074D074EB54209D20024013E761B81
:101BD000B608013608CD01349847B442FAD170BD39
:101BE0006C7B0010747B0010054B064A06491A6096
:101BF000064A074B1A6010000B689843FBD17047E8
:101C000000E00040BFCDFBFE08C00040FE7F3C006E
:101C100000F00040044BDB6C002B03D18022034B0F
:101C2000D2021A607047C046000011504C2011507B
:101C3000044A054B1A60054A1368DB018033FBD167
:101C40007047C046FFFFFF0100F0004008C00040A1
:101C50004022034B9A675A671A67DA667047C04694
:101C600000F0014010B5FEF7D3FF10BD70B5284954
:101C7000284D294E6D1AAC102200302C00D930228C
:101C80003000920000F054FCBC2D3DD823002A3BCC
:101C9000224A052B1DD9302075196D07A446001B5B
:101CA000EB0F002D03DA611C8C46A1007250C01AA4
:101CB000E3189B004108F318C900C9181A605A605C
:101CC00008339942FAD1012303421DD0984360445E
:101CD0000400A300F250631C2F2C15D09B00F2507F
:101CE000A31C2E2C10D09B00F250E31C2D2C0BD0EB
:101CF0009B00F250231D2C2C06D09B00F250631D3C
:101D00002B2C01D09B00F250054B9E6070BDC0464D
:101D100000010010C001001000000020C1010010EF
:101D200000ED00E0002310B5294C82B0A367FFF757
:101D300017FF0122274B1A60636C012BFCD1032291
:101D4000254B1A60224A936B012BFCD1013300937F
:101D50000121224A22480433FFF770FE05230121A6
:101D60000093204A2048FFF769FE00220221042048
:101D70001E4BFFF7EDFD0022012105201C4BFFF754
:101D8000E7FD0022002107201A4BFFF7E1FD0022AA
:101D900000210820174BFFF7DBFD8023DB000093B9
:101DA000002200210920134BFFF75CFD0022104B9D
:101DB00000210620FFF7CCFD0420FFF739FE0E4975
:101DC00000F052F801000020FFF790FE02B010BDB5
:101DD000008000403CB0004030B00040002F685907
:101DE00000800240008C864700C00240001BB70004
:101DF00040597307006CDC0240420F000148042187
:101E0000014B1847000F00201D1B0010014B9B6861
:101E100018470000000F0020124A936F9B0815D24C
:101E20009066D166002905D0FFE7FFE7FFE7516F15
:101E3000106F704704B580210906C2175140002871
:101E400000D0C84305F068FE002104BDF0B5146E53
:101E5000556E576F166FFFF7E3FF146655665767A9
:101E60001667F0BD000000D0114A936F9B0813D293
:101E700010665166002905D0FFE7FFE7FFE7516FC5
:101E8000106F704704B5002801D00020C04305F052
:101E900043FE002104BDC046F0B5146E556E576F69
:101EA000166FFFF7E5FF1466556657671667F0BDB6
:101EB000000000D094464A4A926F9208624601D2CE
:101EC00028E0C046F0B5464E346E756E776F366FBB
:101ED00000F020F89446424A146655665767166724
:101EE0006246F0BD94463E4A926F9208624601D225
:101EF00054E0C046F0B53A4E346E756E776F366F6B
:101F000000F04CF89446364A1466556657671667D3
:101F10006246F0BD002B24DB11D000293EDA00B56B
:101F2000C943404200D1013100F038F8C943404272
:101F300000D10131DB43524200D1013300BD002A00
:101F4000EBD1002801D1002905D00020C90FC90715
:101F500001D1C043410800B505F0D6FD00220023A1
:101F600000BD00B500290ADBDB43524200D101333A
:101F700000F014F8C943404200D1013100BDC9430B
:101F8000404200D10131DB43524200D1013300F025
:101F900005F8DB43524200D1013300BD002923D1B3
:101FA000002B18D1002A0CD0BC460D4F38667A663B
:101FB00000210023FFE7FFE7FFE77A6F386F6746EE
:101FC0007047002801D00748010000B505F09CFDCE
:101FD0000022002300BD02000B00002000217047FA
:101FE000000000D0FFFFFFFF002B00D0BFE0130C6C
:101FF00028D1002AE7D080B4114F39667A66FFE70E
:10200000FFE730B4040C7B6F396F1B0423433B663E
:102010007A66FFE7FFE7FFE7C04684B27B6F3D6F5C
:102020001B0423433B667A66FFE7FFE7C0460023B5
:102030002C042D0C7A6F386F00196941B0BC7047C1
:10204000000000D0F0B594460025140E01D1120214
:102050000835140F01D112010435940F01D19200FB
:102060000235D40F01D152000135D40B0134254F74
:102070007C66254C3C660E0C93B2FFE7FFE7FFE75A
:102080003C6F6643360C7703BE467343DF0B5B043D
:10209000C01AB941130C7343DB18C91ACE08664342
:1020A000360CB64493B273431F0F1B01C01AB941DB
:1020B000130C73431F0B1B05C01AB941860D8F0209
:1020C0003E436643360C092D24DB520A7243801AC4
:1020D0007703460A6643360C16235B1BDE40DF405F
:1020E000BF1964466643821B7046043506330100FF
:1020F000D940A840C01900D30131A24206D2002322
:10210000F0BD0000000000D0FFFFFFFF121B0130F8
:10211000F3D3F1E709277F1BFE406446A2B2724366
:10212000801A00D20139220C7243130C1204821A55
:1021300099410B007046043513370100F940A8405F
:10214000801900D30131002B02D1A2420AD2F0BD86
:10215000013000D30131121BFAD2013BF8D1A24267
:1021600000D2F0BD013000D30131121BF7E7F0B50A
:102170001C0C00D080E00CB400251C0A04D11B020A
:10218000160E3343120208351C0B04D11B01160F27
:102190003343120104359C0B04D19B00960F33434B
:1021A00092000235DC0B02D192185B4101351C0014
:1021B000971864410134464F7C66464C3C660E0CD1
:1021C000FFE7FFE7FFE7C0463C6F6643360C770347
:1021D000BE4697B27743C01B00D20139C01B00D264
:1021E00001399FB27743C91BC91B170C77437E0483
:1021F000FF0B801BB941CE086643360C0C2D33DB38
:10220000B644120B1F053A431B0B97B27743C01B12
:1022100000D201399FB27743C91B170C77433E04A4
:102220003F0C801BB941860D8F023E436643292730
:102230007F1BFE400C3D7746AF40BF1930BCA2B2B9
:10224000ABB272437343801A9941220C7243130C50
:102250001204801A994102000B000137001BA941AA
:10226000F9D2781E0021F0BD0C277F1BFE40774677
:102270007F0BAF40FF19E0E700245D1C07D0144F2F
:102280007D663966FFE7FFE7FFE7FFE73C6F95B242
:102290009EB265436643401BB141150C1E0C65435D
:1022A000664336042F0C3E432D04401BB141994236
:1022B00004D202000B0020000021F0BD01D19042A9
:1022C000F7D3801A994101349942F2D3F6E700001E
:1022D000000000D0FFFFFFFF132370B51D78012D14
:1022E00019D014DD1F48FFF711FC06001E48FFF748
:1022F0000DFC1E4C80223100200000F019F9022D47
:102300002DD01B48FFF7FAFB1A4B186070BD1A4B13
:10231000164CA364F5E7184B144C23606360A3606C
:10232000E36023616361A361E36123626362A3628B
:10233000E36223636363A363E36323646364A3646B
:10234000E36423656365A365E36523666366A3664B
:10235000E36623676367A367E367A364D1E7064B7C
:10236000A364CEE7534400005346000058140020F5
:102370004C330000F03C00207D23001007B5604680
:1023800001880A0A0230DF2AFAD1C9B2820804D3CE
:10239000028840880004104300E00068014A505061
:1023A000039007BD5814002051434343C9188C467D
:1023B000110C83B24B4310B4040C614392B280B24F
:1023C000504362431C041B0C001910BC59411304F8
:1023D000120CC01851416144704700004840414010
:1023E00048400E4B5B6818470C4B1B6818470C4A5B
:1023F000936F9B0802D2094BDB681847F0B5146E47
:10240000556E576F166FFFF7F6FF054A146655664F
:1024100057671667F0BD014B9B6818475815002099
:10242000000000D0491A002808D108467047000073
:10243000C10FC90700D54042002817D0F44603B4A5
:102440000B4B1B68984706BC81409E384042803148
:1024500007D20B0607D04900490AC00510430843BC
:1024600060470130F8E7490A8902F5E77047000044
:10247000F03C0020014B5B6A184700005815002013
:10248000132310B51C781348FFF740FB012C0BD029
:1024900004DD01008022104800F04AF80F48FFF7E1
:1024A0002DFB0F4B186010BD0B4C01005422200077
:1024B00000F03EF80B4B6365A365E3652366636636
:1024C000A366E36623676367A367E3672362E36149
:1024D000E4E7C04653460000581500204C33000086
:1024E000F03C0020E924001007B5604601880A0A84
:1024F0000230DF2AFAD1C9B2820804D302884088A8
:102500000004104300E00068014A5050039007BDEA
:102510005815002001480421014B1847100F0020D6
:102520001D1B0010014B1B6818470000100F0020F6
:10253000014B5B6818470000100F002010B5002801
:1025400000D110BD00F002F9FBE7C04610B5094A02
:102550000300146884B0002C08D0012200910648C2
:10256000524203A9A047012004B010BD00F038F981
:102570000020F9E7643900203D25001000BEFDE78A
:1025800010B5FFF7FBFFC04670B5FFF705FB074D21
:10259000074EB54209D20024013E761BB60801362B
:1025A00008CD01349847B442FAD170BD747B001055
:1025B000807B0010030010B5080011001B689847CD
:1025C00010BDC046F8B5437D07000D001600002B76
:1025D00038D0002A1ADD0B780A2B18D00020012EE3
:1025E00009D0012421006B5C01340A2B1AD0B442BB
:1025F000F8D1864203DD311A3B6828189847AD1997
:10260000013D2B780D3B5A4253413B75F8BD037D8C
:10261000002BE3D102210E483B689847012EEED0F3
:102620000120DEE76B1E5B5C0D2BE0D0884203DAF5
:10263000091A3B6828189847054802213B689847C3
:102640002000D4E70368110028009847DEE7C04661
:10265000047D0010F0B54646D6464F46C0B582B060
:1026600090461C0006000D00FEF7A2FF00232F4A33
:1026700012184B41002B02DA01222D4B52422D49F8
:1026800008008A4605F050FA81466B1C03D13000E1
:1026900005F0F6F90500002C27D0274F274B1C68C2
:1026A000002C18D04346002B21D1254B984602E040
:1026B0002469002C0FD02368002BF9D043461B68F7
:1026C000002B01D09C42F3D120002A003100B847F2
:1026D0002469002CEFD14B46002B23D1280002B0F7
:1026E000E0BCBA46B146A846F0BD164FD6E7144B3B
:1026F000984602E02469002CEDD02368002BF9D025
:1027000043461B68002B01D0A342F3D12A003100BD
:102710002000B8476B460A222000DA71D91D093A19
:10272000B847E7E7504605F0E7F9D7E740420F0022
:10273000FFFFFF7F2C0F0020C52500105C39002013
:1027400060390020B525001000207047F0B5CE4656
:10275000474680B583B06B460600DD1D2870FEF746
:1027600027FF0023194A12184B41002B02DA0122DD
:10277000174B524217490800894605F0D5F9164B08
:1027800080461C68002C14D0144F02E02469002CF1
:102790000FD02368002BF9D03B68002B01D09C425E
:1027A000F4D1200001222900FFF70CFF2469002C3E
:1027B000EFD14346002B05D1300003B0C0BCB94671
:1027C000B046F0BD484605F097F9F5E740420F00E6
:1027D000FFFFFF7F2C0F00205C39002060390020B4
:1027E00070B5040005F04CF9012301000500012239
:1027F0002000FFF72FFF084B1C68002C06D06368F1
:10280000002B05D098472469002CF8D1280070BD12
:102810002469002CF3D1F9E75C39002010B50A4B8C
:102820000A4AC418240DA40082B00092084822006D
:10283000E31CFEF791F9844202DC001B02B010BDDC
:1028400001204042FAE7C0460000E0AF5C7C001087
:1028500030390020F0B5DE4657464E464546E0B5D5
:102860000C0083B080468B460525FEF737F9012220
:1028700027792600BA4065572024324B3249434419
:102880001B0D9B009A468146CB58013AE41B002D54
:102890003EDBAC422FDB1000A84003422BD1B079C5
:1028A00000284BD12C003068AA40160000921A4034
:1028B0001E4240D18026B601B446002F16D0A34652
:1028C00001911C0041463B002E0007001000420011
:1028D000BD5A654500D2AD1932181232920001304E
:1028E00055509842F3D323005C460199009A134354
:1028F00052468B5001E0012464424846FEF7FAF844
:10290000200003B0F0BCBB46B246A946A046F0BDCD
:10291000202F10DC464601E0013C0CD31000A04003
:1029200025000342F8D158468079B046002805D1E9
:1029300058460068B8E709246442DEE7142464427C
:10294000DBE7C0460000E0AF2038002094460122BB
:102950008A4070B5C6461C00036800B59343036007
:10296000002C30D04A005318DB00C3181D00266825
:10297000C8352E60A66804356E606668E468DC338E
:102980002E601C605318DB00184CC21812198024EA
:10299000240614601460164A0C1D8A4082600122CD
:1029A0001500A540802408318A40A401041925603F
:1029B000614622601F22C0180A40D8300260002001
:1029C00040BCB04670BD4A005318DB00C3181D0060
:1029D0008026C83576022E60C0263603AE60F82603
:1029E00004357602DC332E601C60CBE7D01000008B
:1029F0000101010100B5054B83B0010000930022E5
:102A00000B230348FEF7A8F803B000BD807C00103C
:102A1000E847002010B5024800F004F810BDC04699
:102A2000E83C002010B588B004000D220021684663
:102A3000FFF778FD0D22002104A8FFF773FD4B235B
:102A40006A466846137004A90D2205F04DF8152159
:102A5000082220006944FFF76BFD08B010BDC04696
:102A60008C46012110B584B00468017202930423DE
:102A700001000192009301226346A4680831A04737
:102A800004B010BD10B5A024526EE40593011B19CB
:102A900018609960012393408622D200A35010BD94
:102AA000A022D20594464B6E4A6F9B0163441A6084
:102AB0000A00783212780020DA618B6ECA6E9B01B0
:102AC00063445A6070310A780021DA617047C04669
:102AD0004823C25C002A01D00022C2540020704763
:102AE000D0B50400482684B008A80778A05D002867
:102AF00033D001282ED16167210078310A70E36656
:102B00002300002270335A701F708023099AE2500C
:102B10000A9A0433E250823BA35523008833C0CB8A
:102B200014220023B6185F41002F0FDBFEF732FBA3
:102B3000012302930A4B3200009301943B00FEF7FD
:102B40002DFB9023E050002004B0D0BD0126054F9E
:102B50007642EBE702204042F6E701204042F3E7ED
:102B6000A12A0010FFFFFF7FF0B5DE4657464E4614
:102B700045460023E0B587B043604833C35C04009A
:102B8000002B07D1002007B0F0BCBB46B246A946D7
:102B9000A046F0BD48239C46844463461B7EE14624
:102BA000012B00D1A3E00123C26D856D93409246B5
:102BB0001A009B462B684F4993432B604E4B0F00E6
:102BC000EA18120DD3009B1A9B00C95880235B02A0
:102BD00002930B000E3301911B03C9010B434749BC
:102BE000066D0B408021426DF82089050B4303934D
:102BF0000003D3030340F8209202C00102401343B4
:102C000019433F4B052004930591FEF711FFFFF791
:102C100009FC804670008019C000FFF703FC011C0E
:102C20004046FFF7E4FBEC218905FFF7DDFB061CBE
:102C3000FFF720FC83B298460020002B47D1434683
:102C40001B040343019A0293514602AB2800FFF78D
:102C50007DFE5A462B681A432A6001234A461376A2
:102C6000E36DA06D9C46012361461D008D40026806
:102C7000A021AA430260A26E224E9340C9058B5147
:102C80008021214B9201D218490413680B42FCD1D8
:102C90000122634611000433994080239B01C3182D
:102CA0001960154BC118090DCB005B1A9B00F95830
:102CB0001F23194063465B006344DB00C318D8330D
:102CC000196003681D4348230560E2545AE7180061
:102CD000FFF7A8FB011C301CFFF783FB8721C90508
:102CE000FFF799FBFFF7C6FBC0B20002A7E7014F51
:102CF000B6E7C046E43B00200000E0AFFFFFFF9FC7
:102D000000008310440400000C00005048239C463F
:102D1000F0B5DE4657464E4645468C446346E0B520
:102D200001278C6D1A7EB44BCE6D0D004968E318F7
:102D3000E346B74087B01B0D002900D1B8E0290059
:102D40000831E966402070216852022A00D14CE126
:102D50002268AA49BA432260DA00D31A9B00CB1832
:102D60008A465968EB6C6A6D019380235B0202937B
:102D700002AB98460B000E3300911B03C9010B43B5
:102D80009F4940460B40802189050B434360F82052
:102D9000D30300030340F8209202C0010240134312
:102DA00042461943974BD16093600520FEF740FEE1
:102DB000FFF738FB019B81465800C018C000FFF7A1
:102DC00031FB011C4846FFF712FBEC218905FFF798
:102DD0000BFB8146FFF74EFB83B201930020002BD3
:102DE00056D1019B31001B040343009A200002933B
:102DF0004346FFF7ABFD23685A463B43236002235B
:102E00001376AC6DEE6D01273800B0402368710079
:102E1000834323608B197C4ADB00E3189B188022D4
:102E200012061A601A606B6EA0229F409846774B7C
:102E3000D205D750434680279A01754B7F04D2189C
:102E400013683B42FCD10123321D93408022920142
:102E5000A2181360684B8919E218120DD3009B1A4F
:102E60001F229B0053445B68C90061181340D8318E
:102E70000B6023681B3A1843206048230020002180
:102E8000EA5407B0F0BCBB46B246A946A046F0BD26
:102E90001800FFF7C7FA011C4846FFF7A2FA87217E
:102EA000C905FFF7B8FAFFF7E5FAC0B2000298E7E4
:102EB000012A00D19CE022685049BA432260DA001E
:102EC000D31A9B008A46C9582B6D6A6D01938023E3
:102ED0005B02029302AB98460B000E3300911B037A
:102EE000C9010B43464940460B40802189050B43ED
:102EF0004360F820D30300030340F8209202C0018E
:102F000002401343424619433E4BD1609360052073
:102F1000FEF78EFDFFF786FA019B81465800C01828
:102F2000C000FFF77FFA011C4846FFF760FAEC216A
:102F30008905FFF759FA8146FFF79CFA83B2002210
:102F40000193002B41D1019B31001B04134320004E
:102F5000009A02934346FFF7F9FC23685A463B4325
:102F6000236001231376AC6DEE6D01231800B04091
:102F70002268A02182432260AA6E244F9340C90593
:102F8000CB518021224B9201D218490413680B4285
:102F9000FCD10123321D934080229201A2181360BC
:102FA000154BE218120DD3009B1A52469B00D258C3
:102FB0001F231A4073009B19DB00E318D8331A60F3
:102FC000236801221843206057E71800FFF72AFA08
:102FD000011C4846FFF705FA8721C905FFF71BFAD0
:102FE000FFF748FAC2B21202ADE7044B9A460AE76D
:102FF000024B9A46B9E7C0460000E0AFE43B002030
:10300000FFFFFF9F00008310D01000004404000069
:103010000C00005048239C46F0B5DE4657464E460D
:1030200045468C446346E0B501278D6D1A7EBB4B47
:10303000CE6D0C004968EB18E346B74087B01B0D16
:10304000002900D1C7E021000831E166402070214D
:103050006052022A00D15BE12A68B149BA432A6072
:10306000DA00D31A9B00CB188A465968E36C626D6C
:10307000019380235B02029302AB98460B000E3350
:1030800000911B03C9010B43A64940460B40802118
:1030900089050B434360F820D30300030340F82065
:1030A0009202C00102401343424619439E4BD16035
:1030B00093600520FEF7BCFCFFF7B4F9019B814645
:1030C0005800C018C000FFF7ADF9011C4846FFF7D3
:1030D0008EF9EC218905FFF787F98146FFF7CAF9D8
:1030E00083B201930020002B65D1019B31001B04AA
:1030F0000343009A280002934346FFF727FC2B68FE
:103100005A463B432B6002231376A56DE66D0127DB
:103110003800B0402B68710083432B608B19834AC1
:10312000DB00EB189B18802212061A601A60636E8F
:10313000A0229F4098467E4BD205D7504346802719
:103140009A017C4B7F04D21813683B42FCD10123C7
:10315000321D934080229201AA1813606F4B891987
:10316000EA18120DD3009B1A1F229B0053445B6880
:10317000C90069181340D8310B602B681B3A1843FB
:1031800028604823E254FEF713FA2300883303C370
:103190008023E358002B05D0842203212000A2586D
:1031A000494298470020002107B0F0BCBB46B24618
:1031B000A946A046F0BD1800FFF734F9011C4846A7
:1031C000FFF70FF98721C905FFF725F9FFF752F936
:1031D000C0B2000289E7012A00D19CE02A68504968
:1031E000BA432A60DA00D31A9B008A46C958236D75
:1031F000626D019380235B02029302AB98460B0041
:103200000E3300911B03C9010B43464940460B4056
:10321000802189050B434360F820D303000303405A
:10322000F8209202C00102401343424619433E4B2C
:10323000D16093600520FEF7FBFBFFF7F3F8019BDD
:1032400081465800C018C000FFF7ECF8011C484642
:10325000FFF7CDF8EC218905FFF7C6F88146FFF7A7
:1032600009F983B200220193002B41D1019B310067
:103270001B0413432800009A02934346FFF766FBA2
:103280002B685A463B432B6001231376A56DE66DF0
:1032900001231800B0402A68A02182432A60A26E50
:1032A000234F9340C905CB518021224B9201D21864
:1032B000490413680B42FCD10123321D9340802244
:1032C0009201AA181360154BEA18120DD3009B1A2D
:1032D00052469B00D2581F231A4073009B19DB00F3
:1032E000EB18D8331A602B6801221843286048E78E
:1032F0001800FFF797F8011C4846FFF772F887217E
:10330000C905FFF788F8FFF7B5F8C2B21202ADE7BA
:10331000034B9A46FBE6024B9A46B9E70000E0AF42
:10332000E43B0020FFFFFF9F00008310D01000004F
:10333000440400000C000050F0B5DE4657464E46EF
:1033400045464823E0B5C35C87B004004160002BCC
:1033500007D1002007B0F0BCBB46B246A946A04644
:10336000F0BD48239C46844463461A7E0123C66D03
:10337000856DB3409946AD4BE346EB181B0D002914
:1033800000D1AEE001000831C166702140206052DA
:10339000022A00D133E149462A68F8208A432A608C
:1033A000DA00A349D31A9B00CB188A465968E36C0C
:1033B000626D019380235B0202930B000E33009138
:1033C0001B03C9010B439B4902AF0B4080218905B8
:1033D0000B437B600003D3030340F8209202C0013B
:1033E000024013431943944BF960BB600520FEF77C
:1033F0001FFBFFF717F8019B80465800C018C0005C
:10340000FFF710F8011C4046FEF7F1FFEC2189059B
:10341000FEF7EAFF8046FFF72DF883B20193002004
:10342000002B0ED01800FEF7FDFF011C4046FEF7F2
:10343000D8FF8721C905FEF7EEFFFFF71BF8C0B2E2
:103440000002019B31001B040343009A28000293F1
:103450003B00FFF77BFA4A462B6813432B605A4622
:1034600002231376A56DE66D01273800B0402B6866
:10347000710083432B608B19704ADB00EB189B189B
:10348000802212061A601A60636EA0229F4098463E
:103490006B4BD205D750434680279A01694B7F0476
:1034A000D21813683B42FCD10123321D9340802285
:1034B0009201AA1813605D4B8919EA18120DD30006
:1034C0009B1A1F229B0053445B68C9006918134074
:1034D000D8310B602B681B3A184348232860E2540C
:1034E00037E7012A00D19DE049462A6802AF8A43A6
:1034F0002A60DA004E49D31A9B008A46C958036DE8
:10350000426D019380235B0202930B000E33009106
:103510001B03C9010B434749F8200B408021890553
:103520000B437B600003D3030340F8209202C001E9
:10353000024013431943404BF960BB600520FEF77E
:1035400077FAFEF76FFF019B80465800C018C00055
:10355000FEF768FF011C4046FEF749FFEC21890594
:10356000FEF742FF8046FEF785FF83B200220193FB
:10357000002B47D1019B31001B0413432800009A04
:1035800002933B00FFF7E2F94A462B6813432B6096
:103590005A4601231376A56DE66D01231800B0404D
:1035A0002A68A02182432A60A26E254F9340C90554
:1035B000CB518021234B9201D218490413680B424E
:1035C000FCD101221100331D994080239B01EB188F
:1035D0001960164BE918090DCB005B1A51469B0088
:1035E000C9581F23194073009B19DB00EB18D8330F
:1035F00019602B68184348232860E254A9E60C4B55
:103600009A4631E71800FEF70DFF011C4046FEF711
:10361000E8FE8721C905FEF7FEFEFEF72BFFC2B2CA
:103620001202A7E7024B9A46B7E7C0460000E0AF98
:10363000E43B0020FFFFFF9F00008310D01000003C
:10364000440400000C000050F0B5DE4657464E46DC
:1036500045464823E0B5C35C040089B0002B07D081
:10366000002009B0F0BCBB46B246A946A046F0BD5A
:103670000121806DFFF7D2F8AB4A0300E065A06D31
:103680008618360DF500A94AAF1BB90057180092ED
:103690003A7A88463100002A00D132E1AD1B009F02
:1036A000A800ED18023501323818AD00063102725B
:1036B0007D19606DC9B26C60FDF7BCF99A4BA06DC5
:1036C0009B49C018000D40000730FDF7F1FA964BFA
:1036D000A06D0121C018000D40000730FDF7CAFAA7
:1036E0000122E36D93490833DBB29A40A36D0120B8
:1036F0005B181A60FFF77EF960660120FFF77AF920
:10370000636EA56D9C46884BE76DEB181A0D6346FA
:10371000D600D902884B9146F219A066824619401C
:103720001000D2031143112263461143A0229B01D2
:10373000D205D2181161391D8B4689000293CB1C2A
:103740009846A8444346536052467B4BD2021A40E7
:103750001300021DD2031A432123A0201343524613
:10376000C005920112181361482310319846691858
:1037700011600122A0444346BA400393197E01928E
:103780006268002A00D1E7E023007022402008335D
:10379000E366A052022963D02A680199F8208A437F
:1037A0002A604A46B31A009E9B00F3185968E36CDE
:1037B000626D029380235B0204930B000E338946F3
:1037C0001B03C9010B435D4900030B4080218905A0
:1037D0000B430593D3030340F8209202C00102403B
:1037E00013431943564B052007910693FEF720F922
:1037F000FEF718FE029B80465800C018C000FEF776
:1038000011FE011C4046FEF7F2FDEC218905FEF792
:10381000EBFD8046FEF72EFE83B29A460020002B79
:103820005FD153461B0403434A46390028000493E2
:1038300004ABFFF78BF82B68019A13432B6002232C
:10384000039A1376636EE76D9C463B1D9B46A56D00
:10385000354BEB181B0D9946DE0063469B01029326
:1038600001200300BB402A689A469A437B002A60E5
:10387000DA1901938021334BD200AA18D21863467B
:10388000090611601160A02298402F49D2052F4BE4
:10389000505002988021C0184B46490402680A42E1
:1038A000FCD1994601225B469A4080239B019C46AD
:1038B000AC4463461A604B46009AF31A9B00D31837
:1038C0001F2250465B681340019AD119C90069183C
:1038D000D8310B602B680422184348232860E25437
:1038E000BEE61800FEF79EFD011C4046FEF779FD7E
:1038F0008721C905FEF78FFDFEF7BCFDC0B20002AF
:103900008FE71349FEF7A6FF4246009B11499850E6
:10391000A06DFEF79FFFA16D786003483A7A091801
:10392000E36D090DBAE6C0460000E0AFE43B0020BD
:10393000550300202C210000FF7F00FFFFFFFF9FA9
:1039400000008310D0100000440400000C00005060
:10395000447D00101C7D001001296ED02A68019B57
:10396000F8209A434B462A60F31A009A9B00D158DC
:10397000236D626D029380235B0204930B000E3370
:1039800089461B03C9010B43474900030B408021B3
:1039900089050B430593D3030340F8209202C0012D
:1039A000024013431943414B052007910693FEF74C
:1039B0003FF8FEF737FD029B80465800C018C00054
:1039C000FEF730FD011C4046FEF711FDEC21890594
:1039D000FEF70AFD8046FEF74DFD83B29A460022AF
:1039E000002B0ED01800FEF71DFD011C4046FEF70F
:1039F000F8FC8721C905FEF70EFDFEF73BFDC2B2BC
:103A0000120253461B04134339004A46280004930C
:103A100004ABFEF79BFF2B68019A13432B60012335
:103A2000039A1376A36EE76D9A463B1D9B46A56DE0
:103A30001F4BEB181B0D9946DE0001221300BB4003
:103A400029689846994353469A401300A02229605A
:103A50001849D205535053469801174B8021C0187E
:103A60004B46490402680A42FCD101229946594654
:103A700013008B409C4680239B01E818634603603B
:103A80004B46F61A009BB60098591F234146184032
:103A90007B00DB19DB00EB18D83318602B68194367
:103AA00048232960E254DBE5FFFFFF9F00008310FD
:103AB0000000E0AF440400000C0000500A4B826597
:103AC00002000360002348324360416513764822B8
:103AD0008354064B0365064BC364064B88300CCBFE
:103AE0000CC000207047C046087D0010400D030048
:103AF00090D00300A87C0010164810B5036882B06F
:103B00001C6CE20603D4A4060BD402B010BD6A46B6
:103B10001B68D11D103001220B7000F001F9A406C2
:103B2000F3D56B460C4CD91D2000012200F07CF926
:103B3000203C2368002808D150229A63596B183A18
:103B40000A4006495B181A60DFE76A46D2791A60B4
:103B5000DBE7C0469C3A0020BC3A0020341000004D
:103B6000164810B5036882B01C6CE20603D4A406A4
:103B70000BD402B010BD6A461B68D11D1030012263
:103B80000B7000F0CDF8A406F3D56B460C4CD91D94
:103B90002000012200F048F9203C2368002808D1C9
:103BA00050229A63596B183A0A4006495B181A600A
:103BB000DFE76A46D2791A60DBE7C0466C3900203D
:103BC0008C3900203410000070B50D00160000285C
:103BD0004AD12D4C2D4B2E492360142314306360A1
:103BE000FDF766F8A560E66020682A49FDF730FD1C
:103BF0002068002301220821FDF7B8FDC0222068BB
:103C00001202036B00211340234A82181360FDF750
:103C1000E9FD20680021FDF713FEA0680221FCF7F2
:103C200009FFE0680221FCF705FF2100200063681E
:103C300080223031103000F06BF8210020006368E2
:103C40008022B031203000F063F860680121FDF778
:103C500011F85022236820009A63596B183A0A40E1
:103C60000E495B181A6070BD0D4C0E4B2360152376
:103C70006360012804D10C491430FDF719F8B1E74D
:103C800000239B60FFDEC0466C39002000400340EB
:103C9000613B0010127A0000301000003410000068
:103CA0009C3A002000800340F93A001010B5203003
:103CB00000F06AF810BDC04620239C4630B584440D
:103CC000040083B06046654600F098F8002803D1F0
:103CD00023689B6B9B0601D503B030BD6B46012268
:103CE000D91D280000F0CCF86A462368D2791A6002
:103CF00070229A63596B383A0A40044959180A608D
:103D00005A6B072313400B60E6E7C04634100000EF
:103D100010B50160426019000830FDF739F810BD98
:103D2000F0B5C646040000B5904682681368002BC3
:103D3000FCD0BFF35F8FE27923799A4221D20E0043
:103D4000002513E03178637922680135D154607918
:103D5000277901303900FEF75FF8E37961710133AB
:103D6000DBB2E371EDB201369F4201D9A845E9D13A
:103D7000A368BFF35F8F002228001A6080BCB8469A
:103D8000F0BD0025F4E7C046F0B5C646040000B516
:103D900090468568EFF3108372B61A0028680028F1
:103DA000FCD0BFF35F8FE360E07923790E0000253C
:103DB000984214D316E03178637922680135D154E2
:103DC0006079277901303900FEF726F8E3796171CF
:103DD0000133DBB2E371EDB201369F4201D9A84550
:103DE000E9D1E268A368BFF35F8F0021196082F315
:103DF0001088280080BCB846F0BDC0468168EFF34B
:103E0000108272B60B68002BFCD0BFF35F8FC260CC
:103E1000C3798168BFF35F8F0020086082F3108848
:103E20005A425341D8B27047F8B50400170082686F
:103E30001368002BFCD0BFF35F8FE579002D17D0FE
:103E40000E00002512E0A37922680135D35CEDB2A3
:103E50003370A07921790130FDF7DEFFE379A1719C
:103E6000013BDBB2E3710136002B01D0AF42EAD156
:103E7000A368BFF35F8F002228001A60F8BDC04618
:103E8000F8B5040017008568EFF3108372B61A00C6
:103E900028680028FCD0BFF35F8FE579E360002D30
:103EA00018D00E00002512E0A37922680135D35CFA
:103EB000EDB23370A07921790130FDF7ADFFE379E0
:103EC000A171013BDBB2E3710136002B01D0AF429F
:103ED000EAD1E268A368BFF35F8F0021196082F323
:103EE00010882800F8BDC046000000000000000057
:103EF0000BA10CC9126892009B581868203080F3FF
:103F00000988022080F31488BFF36F8F3FBCAE4650
:103F100008BC04BC62B61847C046C046C046C0468E
:103F2000000000D02C3C0020D0231B061A6DD207C5
:103F300004D501219A6D1A6D1142FBD1D023FF22C5
:103F40001B061A658022024B52051A607047C04654
:103F500004ED00E000000000000000000000000090
:103F6000EFF309811AA00CC8106880001B181868AC
:103F700020390160F0C144464D4656465F46F0C1C7
:103F8000146E556E566F176F3039F0C1106808B552
:103F900072B601F0A7FC62B60CBC1168086810305C
:103FA000F0C8A046A946B246BB4680F309880D2258
:103FB00012073038F0C81466556656671767F0C8A0
:103FC0001847C046C046C046C046C046C046C04668
:103FD000000000D02C3C002010B5FCF779FDC04655
:103FE00010B502F0B1FA040001F06AFC002803D019
:103FF0008022034B52051A60200002F0E1FF10BD41
:1040000004ED00E07047C04610B58024031F64042F
:104010001C60043B19600349043B1960143B4038A1
:104020001A6010BDD93F00108022044B52051A605F
:10403000BFF34F8FBFF36F8F7047C04604ED00E0B2
:10404000EFF3108072B6704780F310887047C04657
:10405000D02300221B065A657047C046002310B5C6
:10406000084A094C052023601360FDF7E1FCFA21A2
:104070008900FDF7F9FE054B01381860072323601E
:1040800010BDC04618E000E010E000E014E000E0E1
:1040900070B5224B1A78D0231B061B689A4230D089
:1040A000FF231F4A1B0411680E200B4313601D4998
:1040B00003F0CAFB0B201C4903F0C6FBD023FF22F0
:1040C0001B061A651A6DD20704D501219A6D1A6D67
:1040D0001142FBD1D0252D062C68FF210F34200082
:1040E000FCF710FE20001149FCF7E2FD0121200041
:1040F000FCF7C0FDFFF7FCFE286801F0F3FBFCF7BE
:10410000E7FCFFF7ABFFFF23054A1B0611680F20F2
:104110000B431360064903F097FBC1E7200F002013
:1041200020ED00E0613F001005400010293F001025
:10413000E13F001010B572B6FFF7AAFF10B50E20D0
:10414000FCF75AFD0F20FCF757FD0022044B1A70B4
:1041500003F0A6FB034803F017FCFFF799FFC046E6
:10416000200F00203541001010B50A4B1B78FF2BA3
:104170000CD0EFF30580002805D0D0231B061B6868
:104180004000C01810BD02F009F8FBE7D0231B0661
:104190001868F7E7200F0020434608B5164A036861
:1041A000127882B0FF2A1ED0BFF35F8F00221A6000
:1041B00081F31088114B124A1B689C4603689B18B8
:1041C0009A105C2B0DD8012301215B429140009392
:1041D00001220023604600F031F902B008BC984685
:1041E00000BD183AEFE7BFF35F8F00221A6081F33A
:1041F000108820BFF1E7C046200F0020F0450020C6
:1042000000FFFF2F00B51D4A036883B09B189A106A
:104210005C2B00D9183A1A4B1B78FF2B24D00123B2
:10422000934040BF0268BFF35F8F0020106081F3AE
:104230001088EFF305821349D2B20968002A05D12C
:104240000800190000F056F903B000BD019001AA62
:104250000800190000F098F9019B002BF4D080228F
:10426000094B52051A60EFE740BF0368BFF35F8F49
:1042700000221A6081F31088E6E7C04600FFFF2F96
:10428000200F0020F045002004ED00E0F0B5C64608
:1042900000B51D00334B06001B780F00140082B0E0
:1042A000FF2B52D0FDF784F922002B00121A8B410C
:1042B00001212D4849428018594133689846002908
:1042C00023DC1ED0BFF35F8F00234246136087F3C9
:1042D0001088264B5A6A95420CD98022244B5205ED
:1042E0001A60BFF34F8FBFF36F8F002002B080BC06
:1042F000B846F0BD9B6A0120A342F7D29542F5D1A2
:10430000EBE7FA239B009842DCD3FA2200239200C9
:10431000FDF7D0FD0028D5D0BFF35F8F00234246C4
:10432000136087F31088134B134A1F6833689B1878
:104330009A105C2B00D9183A01210090914000237B
:104340000122380000F07AF8C3E70368BFF35F8FFB
:1043500000221A6081F3108820002900FDF796F8EA
:10436000C4E7C046200F002018FCFFFF00400540B6
:1043700004ED00E0F045002000FFFF2F10B50348DA
:1043800000F050F8024B186010BDC046EC4600200B
:10439000F0450020F0B5D6464F464646C0B506006B
:1043A0000F00050001F01AFA3368346919000C3562
:1043B00039438C463160A5422BD000239A46802396
:1043C000DB04994613E04746002F0DD080277F0479
:1043D0003A4202D052461A43924680239B04194324
:1043E00002F09AFC33689C466146A5420FD020003B
:1043F0000F000268646813021B0A1F40B8464F464C
:104400003A42E0D04345E1D06146A542EFD1534660
:104410009943316002F02EFCE0BCBA46B146A84692
:10442000F0BDC04610B5041E05D0002308C000F042
:10443000B7F801232376200010BDC046F0B5C6466C
:104440000D00060000B51F00904601F0C7F92B00D3
:1044500034682340002F0DD1002B28D04346002B79
:1044600028D02300AB43336002F004FC200080BC62
:10447000B846F0BD9D42F1D0069B002B1AD04346B2
:1044800080215A1E9341C9041B061943069A2943E9
:10449000301D01F093FC02F0EDFB002824D002F067
:1044A000BFFD040083010DD52402240ADEE7069B2C
:1044B000002B02D102F0DEFBD8E741464B1E9941AA
:1044C0000906E3E701F0D8FF346823002B40002FF2
:1044D0000DD1002B05D04346002B02D02300AB4367
:1044E000336002F079F8DFE701F0ACFFD7E79D42D7
:1044F000F7D1F0E7F0B5D6464F4646468146C0B5FF
:104500000C00060001F06AF94B4619681D690C435E
:104510000C3621001C60AE422BD000239A4680232B
:10452000DB04984613E06746002F0DD08021490434
:104530000A4202D052461A439246802189042143FE
:1045400002F0EAFB4B4619680C00AE420FD028007F
:10455000270002686D6813021B0A1F40BC464746CD
:104560003A42E0D06345E1D00C00AE42EFD1534671
:104570009C434B461C6002F07DFB2000E0BCBA4629
:10458000B146A846F0BDC046844610B513000A00E7
:104590000248614603F042F910BDC0469543001041
:1045A0000300083301224360C360036100235242C9
:1045B000826003607047C046002303617047C046B5
:1045C00043689A684B608A6051609960036808612B
:1045D000013303607047C04630B505002B00086802
:1045E0000C000833421C0DD019005B681A68824227
:1045F000FAD963609C602B68A16001334C6025612F
:104600002B6030BD29694B68F3E7C04603694168F8
:1046100082688A6051605968814205D00022026137
:1046200018680138186070475A60F7E770B51C00C9
:1046300000282FD0002B2ED0002A2ED000292AD0DF
:1046400046230125E5542260E0632164030C0A0C33
:10465000002B26D1002A33D101F00EFF216CE36B31
:1046600022684B43D018A06000205B1A6260D21809
:10467000E260FF234422A0632000A3540132A3542C
:104680001030FFF78DFF20002430FFF789FF01F085
:10469000A3FF200070BD0020FCE70029FBD11A0019
:1046A000CEE7002AF5D10A1C80B289B2414392B20A
:1046B0009BB25343090C5B181B0CCDD02000E9E7DB
:1046C000131C021CF0E7C046F0B5CE464746050075
:1046D00080B585B098460192894601F0CDFEAA6B5F
:1046E000EB6B9A427BD342460023022A00D1EBE0D7
:1046F0002E002436019A002A00D1FAE0002B00D1C6
:10470000DEE001F069FF01F069F801F0B5FE442236
:10471000AB5C5BB2013301D10023AB544522AB5CEF
:104720005BB2013301D10023AB5401F055FF01A965
:1047300002A801F053FC002800D0DEE001F09CFE4E
:10474000AA6BEB6B9A426DD001F046FF01F094FE2C
:104750004523EC5C64B2002C04DC11E0013CE4B2C3
:10476000002C0DD06B6A002B0AD0300001F0BEFB8C
:104770000028F3D0013CE4B201F006FD002CF1D199
:104780004523FF22EA5401F027FF01F075FE442380
:104790002F00EC5C103764B2002C04DC11E0013C0B
:1047A000E4B2002C0DD02B69002B0AD0380001F0A8
:1047B0009DFB0028F3D0013CE4B201F0E5FC002CA5
:1047C000F1D14423FF22EA5401F006FF02F052FA2D
:1047D00001F052FEAA6BE96B012391428AD92A6C3F
:1047E000AC6B002A00D173E04346002B00D0F1E00F
:1047F00049466868FDF79CFE6B682A6CA9689B189F
:104800006B606A6A01348B4201D32B686B60AC63C6
:10481000002A65D101F0E0FE012005B0C0BCB94618
:10482000B046F0BD2F00103701F0D6FE38000199D8
:1048300001F02AFA01F020FE4523EC5C64B2002C62
:1048400004DC11E0013CE4B2002C0DD06B6A002BBB
:104850000AD0300001F04AFB0028F3D0013CE4B25A
:1048600001F092FC002CF1D14523FF22EA5401F023
:10487000B3FE01F001FE4423EC5C64B2002C04DCC6
:1048800011E0013CE4B2002C0DD02B69002B0AD0C2
:10489000380001F02BFB0028F3D0013CE4B201F01A
:1048A00073FC002CF1D14423FF22EA5401F094FE62
:1048B00002F0E0F9002800D08AE701F0C3FD87E7A5
:1048C00002A801F07FFB1CE72A6CAC6B002A5AD1CE
:1048D0002E680134002E72D06B6AAC63002B99D025
:1048E0002800243001F002FB002893D001F0AAFD3B
:1048F00090E701F071FE00208FE701F0BDFD452338
:104900002E00EC5C243664B2002C04DC11E0013C87
:10491000E4B2002C0DD06B6A002B0AD0300001F0FD
:10492000E5FA0028F3D0013CE4B201F02DFC002CA4
:10493000F1D14523FF22EA5401F04EFE01F09CFD27
:1049400044232E00EC5C103664B2002C04DC11E031
:10495000013CE4B2002C0DD02B69002B0AD03000B2
:1049600001F0C4FA0028F3D0013CE4B201F00CFCE1
:10497000002CF1D14423FF22EA5401F02DFE02F075
:1049800079F9002049E74946E868FDF7D1FDEB6871
:104990002A6C29689B1AEB608B4202D2AB689B1A87
:1049A000EB606B6A002C04D0AC63002B00D131E7C4
:1049B00096E70122AA63002B00D12BE790E7A868B5
:1049C00001F07AFC6B6AAE60AC63002B88D10028E2
:1049D0008CD11FE74946E868FDF7AAFDEB682A6C11
:1049E00029689B1AEB608B4205D342466B6A022A08
:1049F000D8D00134D8E7AB689B1AEB60F5E7C04626
:104A000070B50C1E2BD00025012346228B54CB639E
:104A100009600D6401F030FD216CE36B22684B43AB
:104A2000D0185B1A6260D218E260FF234422A060B3
:104A30002000A563A3540132A3541030FFF7B0FD4A
:104A400020002430FFF7ACFD01F0C6FD002300225A
:104A500000212000A5602560E560FFF735FE2000FD
:104A600070BDC046F0B5D6464F4646460400C0B5B8
:104A700092461E009946884601F066FDA26BE36BE4
:104A800007009A4222D300253300022E08D03800B6
:104A900002F096FA2800E0BCBA46B146A846F0BD3E
:104AA0004333E55C226CA36BA36B6DB21E00002A3E
:104AB0002FD123689846002B4BD0731CA3636B1C2B
:104AC0001ED1636A002B37D10125E0E74523226C14
:104AD000E55CA36BA36B6DB21E00002AE9D04B46C8
:104AE000002B3CD141466068FDF722FD6368226CD3
:104AF0009B18A26863609342DFD323686360DCE79E
:104B000000F0D8FE8542DFD245230135E55401256A
:104B1000BDE74146E068FDF70BFDE368226C2168C4
:104B20009B1AE3608B4202D2A3689B1AE3603300B6
:104B30005A1E9341F61AC0E72000243001F0D6F93E
:104B40000028C1D05246002ABED00123012513609F
:104B50009DE7A06801F0B0FB4346A360ADE7414686
:104B6000E068FDF7E5FCE368226C21689B1AE360CE
:104B70008B4203D34B46022B9FD1D8E7A3689B1AE5
:104B8000E360F7E7F0B5CE464746050080B585B04F
:104B90008946019201F070FCAC6B002C00D01DE145
:104BA000019B002B00D1C8E02E0002A801F00AFAF8
:104BB0004427243601F010FD00F010FE01F05CFCEB
:104BC000EB5D5BB2013301D10023EB554522AB5CB9
:104BD0005BB2013301D10023AB5401F0FDFC01A90C
:104BE00002A801F0FBF9002856D101F045FCAB6B9F
:104BF000002B00D0A9E001F0EFFC24239846A84444
:104C00004046019901F040F801F036FC4523EC5C88
:104C100064B2002C04DC11E0013CE4B2002C0DD0A5
:104C20006B6A002B0AD0404601F060F90028F3D0EF
:104C3000013CE4B201F0A8FA002CF1D14523FF2297
:104C4000EA5401F0C9FC01F017FC4423EC5C343B4E
:104C5000984664B2A844002C04DC11E0013CE4B2A4
:104C6000002C0DD02B69002B0AD0404601F03EF9F4
:104C70000028F3D0013CE4B201F086FA002CF1D117
:104C80004423FF22EA5401F0A7FC01F0F3FF0028BF
:104C90004AD101F0D7FB47E001F0EEFB4523EC5C85
:104CA00064B2002C04DC11E0013CE4B2002C0DD015
:104CB0006B6A002B0AD0300001F018F90028F3D0FD
:104CC000013CE4B201F060FA002CF1D14523FF224F
:104CD000EA5401F081FC01F0CFFB10239846EC5D13
:104CE000A84464B2002C04DC11E0013CE4B2002CC6
:104CF0000DD02B69002B0AD0404601F0F7F80028B0
:104D0000F3D0013CE4B201F03FFA002CF1D1FF23D3
:104D1000EB5501F061FC01F0ADFF01F0ADFBAB6BB9
:104D2000002B0AD001F058FC01F0A6FBAC6B002C64
:104D300054D1019B002B00D03CE701F04DFC00203A
:104D400005B0C0BCB946B046F0BD01F045FC01F06D
:104D500093FB4523EC5C213B984664B2A844002CAD
:104D600004DC11E0013CE4B2002C0DD06B6A002B96
:104D70000AD0404601F0BAF80028F3D0013CE4B272
:104D800001F002FA002CF1D14523FF22EA5401F090
:104D900023FC01F071FB4423EC5C343B984664B285
:104DA000A844002C04DC11E0013CE4B2002C0DD03E
:104DB0002B69002B0AD0404601F098F80028F3D068
:104DC000013CE4B201F0E0F9002CF1D14423FF22D0
:104DD000EA5401F001FC01F04DFFA5E72A6C002A1E
:104DE00008D0E968AB688918E96099420BD2484657
:104DF000FDF79EFB2B69013CAC63002B06D101F053
:104E0000EBFB01209CE72968E960F0E728001030FF
:104E100001F06CF80028F2D001F014FBEFE7C04677
:104E2000F0B5CE464746050080B585B0019101F04A
:104E300023FBAB6B002B00D040E1019B002B00D18A
:104E40002BE102A801F0BEF800232E00994644276A
:104E5000243601F0C1FB00F0C1FC01F00DFBEB5D5D
:104E60005BB2013301D10023EB554522AB5C5BB251
:104E7000013301D10023AB5401F0AEFB01A902A81C
:104E800001F0ACF800285AD101F0F6FAAB6B002B18
:104E900000D0B1E001F0A0FB2B68002B00D104E1B1
:104EA00024239846A8444046019900F0EDFE01F005
:104EB000E3FA4523EC5C64B2002C04DC11E0013C15
:104EC000E4B2002C0DD06B6A002B0AD0404601F0F2
:104ED0000DF80028F3D0013CE4B201F055F9002CA4
:104EE000F1D14523FF22EA5401F076FB01F0C4FA28
:104EF0004423EC5C64B2002C15DD343B9846A84496
:104F000003E0013CE4B2002C0DD02B69002B0AD049
:104F1000404600F0EBFF0028F3D0013CE4B201F082
:104F200033F9002CF1D14423FF22EA5401F054FB61
:104F300001F0A0FE002855D101F084FA52E001F002
:104F40009BFA4523EC5C64B2002C04DC11E0013CCC
:104F5000E4B2002C0DD06B6A002B0AD0300000F0B8
:104F6000C5FF0028F3D0013CE4B201F00DF9002C9C
:104F7000F1D14523FF22EA5401F02EFB01F07CFA27
:104F8000EC5D64B2002C15DD10239846A84403E0C4
:104F9000013CE4B2002C0DD02B69002B0AD0404616
:104FA00000F0A4FF0028F3D0013CE4B201F0ECF8DB
:104FB000002CF1D1FF23EB5501F00EFB01F05AFE5E
:104FC00001F05AFAAB6B002B0AD101F005FB4B46FE
:104FD000002B5AD1002005B0C0BCB946B046F0BD88
:104FE00001F0FAFA01F048FAAB6B002B66D1019B95
:104FF000002B00D02DE750E001F0EEFA01F03CFA72
:105000004523EC5C64B2002C15DD213B9846A84496
:1050100003E0013CE4B2002C0DD06B6A002B0AD0F7
:10502000404600F063FF0028F3D0013CE4B201F0F9
:10503000ABF8002CF1D14523FF22EA5401F0CCFA61
:1050400001F01AFA4423EC5C64B2002C15DD343B09
:105050009846A84403E0013CE4B2002C0DD02B6933
:10506000002B0AD0404600F041FF0028F3D0013C5D
:10507000E4B201F089F8002CF1D14423FF22EA5474
:1050800001F0AAFA01F0F6FDACE701F0F5F9696A62
:10509000002905D1A86801F06DF901F09DFA99E7A2
:1050A00008212B6B1B68C91AF4E701F0E5F9A86821
:1050B00001F082F8814601F08FFAF1E6013BAB6323
:1050C0002B68002B0FD02B69002B03D101F084FA41
:1050D000012080E72800103000F008FF0028F5D0FC
:1050E00001F0B0F9F2E701F0BFFFA860EBE7C046BE
:1050F00070B5050016000C0001F0BEF94422AB5C4F
:105100005BB2013301D10023AB544522AB5C5BB2EF
:10511000013301D10023AB5401F05EFAAB6B002BDD
:1051200042D001F0A9F94523EC5C64B2002C14DDF7
:105130002E00243603E0013CE4B2002C0DD06B6A53
:10514000002B0AD0300000F0D1FE0028F3D0013C43
:10515000E4B201F019F8002CF1D14523FF22EA5402
:1051600001F03AFA01F088F94423EC5C64B2002CB7
:1051700014DD2E00103603E0013CE4B2002C0DD00B
:105180002B69002B0AD0300000F0B0FE0028F3D0CD
:10519000013CE4B200F0F8FF002CF1D14423FF22DF
:1051A000EA5401F019FA70BD2800320021002430C1
:1051B00000F054FEB5E7C04610B5FEF735FF054CCC
:1051C0002368022B00D8FEE7FEF72EFF2368022B90
:1051D000FAD8F8E7483C0020826BF8B50300002AB3
:1051E00002DB826B012A18DD344C196B22682568BA
:1051F000944622680139926B002A03DB2268926B85
:10520000012A0BDD6268606894466268926B002A2E
:1052100003DB6268926B012A24DDF8BD284A10681E
:105220000028EFD167460126ED6B3F6B35407D1BB3
:10523000AC46A942E6DB5D683542E3D061680F0009
:1052400061680D006168896B00291DDB6168896BED
:10525000012919DC51680E1E16D1396BE86B0F005D
:10526000614609E0164A5568002DD6D165462D6B7A
:1052700001262F00C06B764201252840381A88424B
:1052800017DD731CC9D00020D0231B061B68984271
:105290000BD0850063599B6B0233BED0FEF7D8FE5E
:1052A0000222635952429A63B7E7012380001350E8
:1052B000B3E75B689B07E4D50120E5E72C3C0020C1
:1052C000E0470020F0B5D6464F464646424BC0B5B3
:1052D0001F68424B04001B688A469846404B1B6877
:1052E0009946EFF3108272B6D026360633683D4DEC
:1052F0009B00E85882F310880830FFF787F9631C99
:1053000030D03C19EFF3108172B6D0221206136828
:105310009B00EB5881F310889C60A74215D8EFF3EF
:10532000108072B613689B00E95880F310884046DD
:105330000831FFF751F92C4B1A68A24200D91C60C2
:10534000E0BCBA46B146A846F0BDEFF3108072B695
:1053500013689B00E95880F3108848460831FFF72E
:105360003BF9EDE75346002BCBD0204B5A68EFF3C7
:10537000108072B631688900695880F31088CA605D
:10538000EFF3108072B631688900695880F3108895
:1053900090680861EFF3108072B63168890069582F
:1053A00080F31088906808314160EFF3108072B686
:1053B00031688900695880F3108808319160EFF3F3
:1053C000108172B632689200AA5881F310889361F6
:1053D0001A6801321A60B3E778470020383C002091
:1053E000403C00202C3C0020BC46002050470020C0
:1053F000F0B557464546DE464E46D023E0B51B067F
:105400001A6883B00193494B95005B599A469B6B90
:10541000023300D082E04649012689464549AC4620
:1054200088465146444F454B454C00912EE0500074
:1054300025185E706E704D462D68002D0CD1255CD0
:10544000002D5DD19C46009D4B461B68002BFBD078
:1054500000956346BFF35F8F1E7026549500AC46DF
:10546000795100290ED11D78AA4601256D42AA4422
:1054700055461D701D78002D04D12154BFF35F8F58
:10548000484601600099896B023147D161467958DD
:1054900000290FD0604600253D501878013818705B
:1054A0001878C5B2002805D150002554BFF35F8F8E
:1054B000484605605878013858705878C5B20028B9
:1054C00006D15200A2185570BFF35F8F4246156097
:1054D00062B672B64046019A006812680028A6D1EA
:1054E000500025186D78002D11D19C46009D434633
:1054F0001B68002BFBD063460095BFF35F8F97E7D7
:105500001D78AC460125AC4465461D70A6E75D7864
:10551000AC460125AC4465465D708CE703B0F0BC39
:10552000BB46B246A946A046F0BDC0462C3C002072
:10553000380100D03C0100D0843D0020003D002017
:10554000FC3C0020F0B5D6464F4646466D4BC0B5F4
:105550001D6801351D60002D00D192E06A4B9A460E
:1055600053461B689D423BD2684C694D694E2B687F
:105570001A6B93009B189B00E358012B01D9012360
:1055800033606B681A6B93009B189B00E358012BE8
:1055900001D901237360D0231B061C683368002BDC
:1055A00007D0002C00D1A6E02B689B6B023300D003
:1055B00095E07368002B79D0012C78D0D0231B069E
:1055C0001B680024012B70D06B689B6B02336ED07C
:1055D0000120FEF73DFD02226B6852429A6366E0AD
:1055E0004D4E4A4C33681B68002B6DD04B4B99468F
:1055F00033E01A68013A1A60C36A002B10D0026ABD
:105600001700426ABA60076A57605A6894460200F7
:105610001C3294455DD00022C2621A68013A1A60B9
:105620004B46026B1B689A4201D94B461A609300A5
:105630009B189B00E21894465268C2609768076105
:105640007960916062468261E2580132E250FFF770
:10565000C3FD33681B68002B36D03368DB68D8681D
:1056600083689D4238D3C168026983698A60C168D2
:10567000516001005A6808318A42BAD102695A6001
:10568000B7E7254B264A196810681860116025494C
:105690000A6801320A601A681268002A0DD10123D3
:1056A000194A5B42924613605AE773600024200057
:1056B000E0BCBA46B146A846F0BD1B68124ADB689A
:1056C00092461B6813604BE7012352465B4213600E
:1056D0004BE7426A5A609EE75246136045E7002056
:1056E000FEF7B6FC02222B6852429A637368002BC5
:1056F00000D061E7DAE773680124002B00D063E78C
:10570000D5E7C04678470020BC460020483C002032
:105710002C3C0020E0470020383C00209C45002025
:10572000403C0020C0460020F8B5EFF3108672B66A
:10573000D023254A1B061B681168244D5B000029F5
:1057400008D1E9184978002935D111680029FCD021
:10575000BFF35F8F01221E4CEB1862705A701D4F11
:105760003B68002B24D0D0231B4A1B061B68116802
:105770005B00002907D1E95C002921D111680029CB
:10578000FCD0BFF35F8F01222270EA543A680132E5
:105790003A602278013A22702278D1B2002A04D1EC
:1057A000E954BFF35F8F0C4B196086F31088F8BD86
:1057B000FFF71EFED7E7064C637801336370CEE730
:1057C000227801322270E1E73C0100D0FC3C00204D
:1057D000003D002094410020380100D0F8B52C4B4A
:1057E0001B68002B00D1F8BDEFF310831F0072B6C9
:1057F000D023284A1B0611681B6800292FD0264E8B
:105800005B000122254CF31862705A70244D2B68FE
:10581000002B31D0D023234A1B061B6811685B0084
:10582000002907D1F15C002929D111680029FCD099
:10583000BFF35F8F01222270F2542A6801322A607E
:105840002278013A22702278D1B2002A04D1F15490
:10585000BFF35F8F134B196087F31088C3E70E49BE
:105860005B000E00C918497800290CD11168002985
:10587000FCD0BFF35F8FC4E7FFF7BAFDCAE7227819
:1058800001322270D9E7054C637801336370BDE7BC
:10589000E04600203C0100D0FC3C0020003D002000
:1058A00094410020380100D0014B18687047C04671
:1058B00078470020014B18687047C0468C3D002097
:1058C000064B10B51B68002B02D1FFF73BFE10BD45
:1058D000034A0020136801331360F8E79441002065
:1058E000C8460020F0B5DE4657464E464546E0B570
:1058F000BF4B85B01A680190002A4BD0BD4B9B4628
:10590000430000935A4601230099BB4F52187B7005
:105910005370BA4B1A68002A0AD15A460099525C51
:10592000002A00D000E11A68002AFCD0BFF35F8F84
:1059300001235A4600993B705354B14B1B68002B0E
:1059400037D00121019AAF4B9200D1503B78013BF7
:105950003B703B78DAB2002B06D15B4600995A5473
:10596000BFF35F8FA54B1A607B78013B7B707B7820
:10597000DAB2002B07D15B4600995B185A70BFF36F
:105980005F8F9B4B1A6005B0F0BCBB46B246A94680
:10599000A046F0BD974A41009346521852780091B4
:1059A000002A00D0C4E01A68002AFCD0BFF35F8F41
:1059B000A8E70199934A8D0003925351EFF31081A8
:1059C00072B6D0231B061A688F4C9200A25881F33E
:1059D0001088516BEFF3108072B61A689200A258CB
:1059E00080F310881268EFF3108072B61B689B007A
:1059F000E35880F310885B6B10339A4204D9834AD2
:105A00000B68934200D198E0EFF3108072B6D02279
:105A1000120613689B00E15880F31088EFF310869C
:105A200072B613689B00E05886F310884031FAF78D
:105A300051FC774B1E689846625963599269196BFD
:105A40008B005B1873499B00CB1802919A4200D1DE
:105A500080E00123019A9340029A9C469146B3004C
:105A60009B199B0008329944D0183B0001224F46F5
:105A700099460BE0002A04D0434641461B68013B8F
:105A80000B60002E49D0143F1438013E3B68002BB8
:105A9000F0D04368834200D1A7E0C246B8466746CB
:105AA000B446060005E061598A4222D05B68B342E1
:105AB0002BD0DA68916B481CF5D150683842F5D08C
:105AC000635988469963019B60599363D0231B06F1
:105AD00062514F461A68002808D0066B0299B3003D
